:1000000003308A001C2B00008E30F7005E08F800D9
:100010005D08F900FA01F808031D18287908F800AE
:10002000F9010830F702F808031D1828F701202805
:100030000310F81B1F28F90DF80DF7031828F81303
:100040008A110A128A2B5D0803199328E5006108BA
:1000500003199328E507031834287F30E502031CB1
:1000600093280319932838288130E507031893282B
:100070006508F700F801F901FA015E08E900E917DF
:100080005F08E8006008E7001830E500E601671C3B
:1000900061286408FA07031C5328F90A031D532832
:1000A000F80A0319E6176308F907031C5A28F80A27
:1000B0000319E6176208DF00DF175F08F807031867
:1000C000E617E60DF80CF90CFA0CE90CE80CE70C55
:1000D0000310E50B46280130F70703189328F81B97
:1000E0007828E90DFA0DF90DF80DF7030319932897
:1000F000E91F8928FA0A031D8928F90A031D89289E
:10010000F80A031D8928F80CF90CFA0CF70A0319F0
:1001100093285E08E6006208E606E61F9128F817B5
:100120009728F8139728F701F801F901FA01080058
:10013000610803195D29ED00650803195D29ED02C9
:10014000031CA7287F30ED0703185D29AD288130F7
:10015000ED02031C5D2903195D296D08F700F80104
:10016000F901FA01EC016208EB00EB176308EA0001
:100170006408E9001930ED006808E9020318D02886
:100180000130EA020318D028EB020318D028EC0251
:100190000318D028EC0AEB0AEA0A6808E9070229E2
:1001A0006708EA020318EB280130EB020318EB287A
:1001B000EC020318EB28EC0AEB0A6708EA07680868
:1001C000E907031C0229EA0A031D0229EB0A031DA1
:1001D0000229EC0A022966088038EB02031801297B
:1001E0000130EC0203180129EC0A66088038EB079D
:1001F0006708EA07031CDF28EB0A031DDF28EC0A67
:10020000DF287A14ED0B052910290310E90DEA0DFA
:10021000EB0DEC0D0310FA0DF90DF80DEE0DBC28E9
:100220006E1C18290310F80CF90CFA0CEE0C1B29A3
:10023000F70303195D29EE1B44290310E90DEA0DAC
:10024000EB0DEC0D6808E902031830290130EA02D1
:1002500003183029EB0203183029EC02031C532940
:100260006708EA0203183B290130EB0203183B2917
:10027000EC02031C532966088038EB02031844295A
:100280000130EC02031C5329FA0A031D5329F90A11
:10029000031D5329F80A031D5329F70A03195D2981
:1002A000F80CF90CFA0C6208ED006608ED06ED1F7B
:1002B0005B29F8176129F8136129F701F801F901A1
:1002C000FA018A110A12B02B80308318E606EB017E
:1002D000EC016208EA006608EA0661080319542A7C
:1002E000E900F700650803195D2AE9020319F929F5
:1002F000031CB7296608EF00EF176708EE006808CF
:10030000ED00EC010310EF0CEE0CED0CEC0CE90B26
:100310008129EA1F8E296B14712A6B1069106B16E4
:10032000643084008313862A6B12EA1BA129691C9E
:10033000AC29EF0CEE0CED0CEC0CF70A03196C2A4F
:10034000AC29EF1BAF290310EC0DED0DEE0DEF0DF9
:10035000F70303196C2AA1296B17192A6B1362087A
:10036000EA00EA1FB529EF17652AEF13652A650829
:10037000E900F7006108E9026208EF00EF1763087F
:10038000EE006408ED00EC010310EF0CEE0CED0C38
:10039000EC0CE90BC329EA1FD029EB14712AEB10EE
:1003A0006910EB16683084008313862AEB12EA1B6F
:1003B000E329691CEE29EF0CEE0CED0CEC0CF70AAE
:1003C00003196C2AEE29EF1BF1290310EC0DED0D3A
:1003D000EE0DEF0DF70303196C2AE329EB17192A29
:1003E000EB136608EA00EA1FF729EF17652AEF13F7
:1003F000652A6608EF00EF176708EE006808ED0051
:10040000EA1F062AEF136B15712A6B11EC016910B4
:10041000643084008313862AEA1B2F2A6208EA00CC
:10042000691C192AEF0CEE0CED0CEC0CF70A031901
:100430006C2AEC1F2A2AED0A031D2A2AEE0A031D44
:100440002A2AEF0A031D2A2AEF0CEE0CED0CF70AFC
:1004500003196C2A6B1BAE29EB1BF0294E2A803046
:10046000EF06EF1F372A712A6608EA00442A62085D
:10047000EA00EF08031D442AEE08031D442AED0894
:10048000031D442AF701652AEF1B4E2A0310EC0DC9
:10049000ED0DEE0DEF0DF70B442A6C2AEA1F522AE0
:1004A000EF17652AEF13652A6508F7006608EF0065
:1004B0006708EE006808ED00652A6108F700620829
:1004C000EF006308EE006408ED006F08F8006E08A6
:1004D000F9006D08FA00A42AF701F801F901FA0100
:1004E000A42AEC01ED09EE09EF09EC09EC0A031D61
:1004F0007F2AED0A031D7F2AEE0A0319EF0A6B1803
:100500008D29EB18CF296B19052A342A0008ED072D
:10051000031C902AEE0A031D902AEF0A031969149E
:1005200084030008EE07031C982AEF0A03196914D4
:1005300084030008801F803AEF07031869146B1AC0
:100540009429EB1AD6290C2A08005E08E5006208F7
:10055000E506E51FB02A03110310DE1B0314E32A8E
:100560005E08E5006108E6005D08E6020319BE2AA0
:10057000E51FE32A0308013A8300E32A6208E60044
:100580005E08E6020319CA2AE51FE32A0308013AB6
:100590008300E32A6308E6005F08E6020319D62A0F
:1005A000E51FE32A0308013A8300E32A6408E60012
:1005B0006008E6020319E22AE51FE32A0308013A6C
:1005C0008300E32A031008008E30F7005D08F7026D
:1005D0005E08F9005F08F800F917F7080319FB2A0D
:1005E0000310F908031DF72AF8080319FB2AF90C70
:1005F000F80CF70BF02ADE1F022BF809F909F80AAC
:100600000319F90A8A110A12BD2C5D308400831384
:1006100000080319192B0130F800F701F70B0E2B16
:10062000F80B0D2B4A30F700F70B142B172B800B10
:100630000B2B8A110A12E72C03081F398300FF30A5
:10064000A00083161F149F141F159F1107309C00D4
:1006500083138312DC01DB01DA01D901D801D70150
:100660007A30D6008830D500D001CF01CE01CD013F
:10067000D401D301D201D101A8019130A7007E306D
:10068000A6007B30A5005F30AC002930AB004B30BA
:10069000AA007730A900A030B0001A30AF001F3098
:1006A000AE007E30AD00B401B3011630B200893027
:1006B000B1000030F80005389200F930831692003E
:1006C00083122011200883168700831207110C3033
:1006D000970083161F109F101F119F111F13831265
:1006E0001F179F1783169F1783121F140030F800DF
:1006F0001F08C73978049F001F151F197D2B83160B
:100700001E088312A1001E08A2002208DE00210894
:10071000DD000428E0014030DF001C30DE008B30BB
:10072000DD007A08E4007908E3007808E200770841
:10073000E10023207A08E0007908DF007808DE0075
:100740007708DD007A08E4007908E3007808E20021
:100750007708E100E801E701E6018930E500982823
:100760007A08C8007908C7007808C6007708C5006D
:100770003408B8003308B7003208B6003108B500B5
:1007800083143808E4003708E3003608E20035082F
:10079000E1004808E8004708E7004608E600450889
:1007A000E50064217A08BC007908BB007808BA002B
:1007B0007708B9002C08E0002B08DF002A08DE00CB
:1007C0002908DD003C08E4003B08E3003A08E200A9
:1007D0003908E10023207A08E0007908DF00780872
:1007E000DE007708DD0083107A08E4007908E30072
:1007F0007808E2007708E1005008E8004F08E700B9
:100800004E08E6004D08E50064217A08C00079082A
:10081000BF007808BE007708BD0083143C08E400E0
:100820003B08E3003A08E2003908E1005408E80018
:100830005308E7005208E6005108E500642130083B
:10084000E0002F08DF002E08DE002D08DD007A080A
:10085000E4007908E3007808E2007708E10023204B
:100860007A08C4007908C3007808C2007708C1007C
:100870002808E0002708DF002608DE002508DD0044
:100880003C08E4003B08E3003A08E2003908E100D4
:10089000232083104008E4003F08E3003E08E20004
:1008A0003D08E1007A08E8007908E7007808E600EA
:1008B0007708E50064217A08E0007908DF0078080D
:1008C000DE007708DD0083107A08E4007908E30091
:1008D0007808E2007708E1004408E8004308E700F0
:1008E0004208E6004108E50064217A08CC00790856
:1008F000CB007808CA007708C9005808E0005708FC
:10090000DF005608DE005508DD004C08E4004B0807
:10091000E3004A08E2004908E100A522031C992CE3
:100920005808CC005708CB005608CA005508C90023
:10093000B42C4C08E0004B08DF004A08DE004908F0
:10094000DD005C08E4005B08E3005A08E200590897
:10095000E100A522031CB42C5C08CC005B08CB0092
:100960005A08CA005908C9004C08E0004B08DF00CB
:100970004A08DE004908DD00E42A7908A400780866
:10098000A3002408F9002308F800F90CF80CF90C6E
:10099000F80CF90C78089500F90C790C3039F7004F
:1009A0001708CF39770497004008D0003F08CF00E0
:1009B0003E08CE003D08CD003C08D4003B08D300E3
:1009C0003A08D2003908D1006430DD00052B7C2BB9
:0209D0006300C2
:02400E00713F00
:00000001FF
;PIC16F877A
;CRC=1AA1  CREATED="17-ene.-21 20:46"
